{
  "_format": "hh-sol-artifact-1",
  "contractName": "WhiteList",
  "sourceName": "contracts/WhiteList.sol",
  "abi": [
    {
      "inputs": [],
      "stateMutability": "nonpayable",
      "type": "constructor"
    },
    {
      "inputs": [
        {
          "internalType": "bytes32",
          "name": "data",
          "type": "bytes32"
        },
        {
          "internalType": "bytes",
          "name": "signature",
          "type": "bytes"
        }
      ],
      "name": "_verify",
      "outputs": [
        {
          "internalType": "bool",
          "name": "",
          "type": "bool"
        }
      ],
      "stateMutability": "view",
      "type": "function"
    }
  ],
  "bytecode": "0x608060405234801561001057600080fd5b50600080546001600160a01b031916331790556104e2806100326000396000f3fe608060405234801561001057600080fd5b506004361061002b5760003560e01c8063cfa8ba4f14610030575b600080fd5b61004361003e3660046103c2565b610057565b604051901515815260200160405180910390f35b6040517f19457468657265756d205369676e6564204d6573736167653a0a3332000000006020820152603c81018390526000908190605c0160408051601f19818403018152919052805160209091012060005490915073ffffffffffffffffffffffffffffffffffffffff166100cd82856100ec565b73ffffffffffffffffffffffffffffffffffffffff1614949350505050565b60008060006100fb8585610110565b9150915061010881610155565b509392505050565b60008082516041036101465760208301516040840151606085015160001a61013a878285856102c2565b9450945050505061014e565b506000905060025b9250929050565b60008160048111156101695761016961047d565b036101715750565b60018160048111156101855761018561047d565b036101d75760405162461bcd60e51b815260206004820152601860248201527f45434453413a20696e76616c6964207369676e6174757265000000000000000060448201526064015b60405180910390fd5b60028160048111156101eb576101eb61047d565b036102385760405162461bcd60e51b815260206004820152601f60248201527f45434453413a20696e76616c6964207369676e6174757265206c656e6774680060448201526064016101ce565b600381600481111561024c5761024c61047d565b036102bf5760405162461bcd60e51b815260206004820152602260248201527f45434453413a20696e76616c6964207369676e6174757265202773272076616c60448201527f756500000000000000000000000000000000000000000000000000000000000060648201526084016101ce565b50565b6000807f7fffffffffffffffffffffffffffffff5d576e7357a4501ddfe92f46681b20a08311156102f9575060009050600361038a565b6040805160008082526020820180845289905260ff881692820192909252606081018690526080810185905260019060a0016020604051602081039080840390855afa15801561034d573d6000803e3d6000fd5b5050604051601f19015191505073ffffffffffffffffffffffffffffffffffffffff81166103835760006001925092505061038a565b9150600090505b94509492505050565b7f4e487b7100000000000000000000000000000000000000000000000000000000600052604160045260246000fd5b600080604083850312156103d557600080fd5b82359150602083013567ffffffffffffffff808211156103f457600080fd5b818501915085601f83011261040857600080fd5b81358181111561041a5761041a610393565b604051601f8201601f19908116603f0116810190838211818310171561044257610442610393565b8160405282815288602084870101111561045b57600080fd5b8260208601602083013760006020848301015280955050505050509250929050565b7f4e487b7100000000000000000000000000000000000000000000000000000000600052602160045260246000fdfea26469706673582212204c32c655def7db9381c3a8d6335349cebd7fcc0daa6416e2023eb9c6a74a448364736f6c634300080f0033",
  "linkReferences": {},
  "deployedLinkReferences": {}
}